:020000040800F2
:1000000000000320B9EE0008951B0008A31B0008A0
:10001000A91B0008AF1B0008B51B0008000000006A
:10002000000000000000000000000000BB1B0008F2
:10003000C91B000800000000D71B0008E51B0008D2
:100040000DEF00080DEF00080DEF0008F11B000890
:100050000DEF00080DEF00080DEF00080DEF000890
:100060000DEF00080DEF0008091C00080DEF000857
:100070000DEF00080DEF00080DEF00080DEF000870
:100080000DEF00080DEF00080DEF00080DEF000860
:100090000DEF00080DEF00080DEF00080DEF000850
:1000A0000DEF00080DEF00080DEF00080DEF000840
:1000B0000DEF00080DEF00080DEF00080DEF000830
:1000C0000DEF00080DEF00080DEF00080DEF000820
:1000D000191C00080DEF00080DEF00080DEF0008D7
:1000E0000DEF00080DEF00080DEF00080DEF000800
:1000F000391C00082D1C00080DEF00080DEF00084A
:100100000DEF00080DEF00080DEF00080DEF0008DF
:100110000DEF00080DEF00080DEF00080DEF0008CF
:100120000DEF00080DEF00080DEF00080DEF0008BF
:0C0130000DEF00080DEF00080DEF0008B7
:1001400010B5054C237833B9044B13B10448AFF311
:1001500000800123237010BD280300200000000050
:1001600080EF000808B5034B1BB103490348AFF308
:10017000008008BD000000002C03002080EF000874
:10018000034613F8012B002AFBD1181A01387047D7
:1001900053B94AB9002908BF00281CBF4FF0FF31EE
:1001A0004FF0FF3000F07AB9ADF1080C6DE904CEE4
:1001B00000F006F8DDF804E0DDE9022304B0704742
:1001C0002DE9F0478C460D460446089E002B51D180
:1001D0008A4217466DD9B2FA82FEBEF1000F0BD0EB
:1001E000CEF1200C01FA0EF520FA0CFC02FA0EF703
:1001F0004CEA050C00FA0EF44FEA174A250CBCFB3A
:10020000FAF81FFA87F90AFB18CC45EA0C4508FBF7
:1002100009F3AB420AD9ED1908F1FF3280F02381CE
:10022000AB4240F22081A8F102083D44ED1AA4B28D
:10023000B5FBFAF00AFB105544EA054400FB09F946
:10024000A14509D9E41900F1FF3380F00A81A145E5
:1002500040F2078102383C44A4EB090440EA08401C
:100260000021002E61D024FA0EF400233460736064
:10027000BDE8F0878B4207D9002E54D0002186E8D4
:1002800021000846BDE8F087B3FA83F1002940F069
:100290008E80AB4202D3824200F2FA80841A65EB70
:1002A00003050120AC46002E3FD086E81010BDE8C3
:1002B000F08712B90127B7FBF2F7B7FA87FEBEF154
:1002C000000F34D1EB1B3A0C1FFA87FC0121B3FB62
:1002D000F2F8250C02FB183345EA03450CFB08F342
:1002E000AB4207D9ED1908F1FF3002D2AB4200F260
:1002F000D1808046ED1AA3B2B5FBF2F002FB105597
:1003000043EA05440CFB00FCA44507D9E41900F1BD
:10031000FF3302D2A44500F2B8801846A4EB0C04C7
:1003200040EA08409DE731463046BDE8F087CEF10F
:10033000200405FA0EF307FA0EF720FA04F83A0C37
:1003400025FA04F448EA0308B4FBF2F14FEA184531
:1003500002FB11441FFA87FC45EA044501FB0CF33C
:10036000AB4200FA0EF409D9ED1901F1FF3080F02B
:100370008A80AB4240F2878002393D44EB1A1FFA73
:1003800088F5B3FBF2F002FB103345EA034500FBAE
:100390000CF3AB4207D9ED1900F1FF386FD2AB4235
:1003A0006DD902383D44EB1A40EA01418FE7C1F1B3
:1003B000200722FA07F88B4005FA01F448EA030304
:1003C00020FA07FE4FEA134CFD404EEA040EB5FB3F
:1003D000FCF94FEA1E440CFB19551FFA83F844EA56
:1003E000054509FB08F4AC4202FA01F200FA01FAF1
:1003F00008D9ED1809F1FF3043D2AC4241D9A9F137
:1004000002091D442D1B1FFA8EFEB5FBFCF00CFBF0
:1004100010554EEA054400FB08F8A04507D9E4183A
:1004200000F1FF3529D2A04527D902381C4440EA03
:100430000940A4EB0804A0FB02894C45C6464D4682
:1004400015D312D056B1BAEB0E0364EB050404FACF
:1004500007F7CB401F43CC40376074600021BDE8F4
:10046000F0871846F8E69046E0E6C245EAD2B8EBD7
:10047000020E69EB03050138E4E72846D7E740465A
:1004800091E78146BEE7014678E702383C4445E7FC
:10049000084608E7A8F102083D442BE7704700BF73
:1004A00080B500AF0521002005F026FE0346002B95
:1004B0000BD10D4B1B6843F002030B4A13600A4B30
:1004C0001B6843F00403084A13600221012005F071
:1004D00013FE0346002B05D1034B1B6843F00103B9
:1004E000014A136000BF80BD4403002080B500AF07
:1004F0000221002006F036F80346002B01D001F05F
:100500008BFA0221002006F023F90346002B06D1C6
:10051000054B1B6843F01003034A136001E001F030
:100520007BFA00BF80BD00BF4403002080B483B0CD
:1005300000AF78604FF0B0414FF0B0439B6823F4B8
:1005400000427B6813438B6000BF0C37BD465DF8EB
:10055000047B704780B500AF00F01CF80349002011
:1005600000F060FE00F020F800BF80BD940600207F
:1005700080B582B000AF0346FB80FB88102B00D013
:1005800004E0002102200EF08BFB00BF00BF083703
:10059000BD4680BD80B500AF4FF40040FFF7C6FFF9
:1005A0000EF042FA00BF80BD80B588B000AF0DF0FC
:1005B000F1F8114A002120200EF052FB0F4B3B6056
:1005C0000F4B7B603B4619460E480CF0ADFF0E4BBF
:1005D000BB600E4BFB600E4B3B6140F23C537B61BA
:1005E00007F1080318460DF0E3F90DF0CDF800BF50
:1005F0002037BD4680BD00BF61D50008000703203D
:10060000150600082B060008180903200C08032013
:10061000C401032080B483B000AF0346FB7100BF68
:100620000C37BD465DF8047B704780B582B000AFE3
:1006300078600DF02DFA0DF061FB002101200EF025
:1006400005FA00BF0837BD4680BD80B400AF00BFCB
:10065000BD465DF8047B704780B582B000AF78601E
:1006600039604FF0FF300EF01FFA00BF0837BD466B
:1006700080BD80B582B000AF7860002120200EF0F0
:100680000FFB00BF0837BD4680BD80B582B000AF0C
:10069000786002200EF06AFB00BF0837BD4680BDBF
:1006A00080B582B000AF786002200EF07DFB00BF05
:1006B0000837BD4680BD80B485B000AF78604FF08C
:1006C000B0414FF0B043DA6C7B681343CB644FF01A
:1006D000B043DA6C7B681340FB60FB6800BF1437E3
:1006E000BD465DF8047B704780B485B000AF78608C
:1006F0004FF0B0414FF0B0439A6D7B6813438B6568
:100700004FF0B0439A6D7B681340FB60FB6800BFFD
:100710001437BD465DF8047B704780B483B000AFEA
:1007200078604FF0B0414FF0B0439A6D7B68DB4387
:1007300013408B6500BF0C37BD465DF8047B7047E6
:1007400080B582B000AF00237B60194B194A1A6054
:10075000194B1B685A1C18490A60002B22D11448F7
:1007600007F04CFA0346002B1CD1114800F0FEF8AC
:100770007B68002B16D10E4800F0B4F80346002B1E
:1007800003D06FF007037B600CE00021084807F0FE
:1007900069FC0346002B03D06FF007037B6001E088
:1007A00000237B607B6818460837BD4680BD00BFCC
:1007B000BC050020005400404803002080B582B0F2
:1007C00000AF00237B600F4B1B68002B14D00D4B38
:1007D0001B68013B0B4A13600A4B1B68002B0BD1B3
:1007E000094800F0E5F8084806F096FF0346002B9C
:1007F00002D06FF007037B607B6818460837BD4660
:1008000080BD00BF48030020BC05002080B58AB031
:1008100004AFBA601A460346FB810B46BB81134600
:10082000FB8000237B61BA89F9894FF480530293DE
:10083000FB880193BB68009301230C4806F0B0FFCE
:100840000346002B0CD0094807F0E6F90346042BB9
:1008500003D16FF065037B6102E06FF003037B61FE
:100860007B6918461837BD4680BD00BFBC05002017
:1008700080B58AB004AFBA601A460346FB810B46C6
:10088000BB811346FB8000237B61BA89F9894FF451
:1008900080530293FB880193BB68009301230C48AB
:1008A00007F092F80346002B0CD0094807F0B4F982
:1008B0000346042B03D16FF065037B6102E06FF008
:1008C00003037B617B6918461837BD4680BD00BFB6
:1008D000BC05002080B500AF06F0ECF903461846D1
:1008E00080BD000080B584B000AF78600023FB734A
:1008F0007B681C4A1A607B681B4A5A607B6800222E
:100900009A607B680122DA607B6800221A617B684A
:1009100000225A617B6800229A617B680022DA61BA
:100920007B6800221A62786806F068FE0346002B96
:1009300001D00123FB730021786807F093FB034685
:10094000002B01D00123FB730021786807F0D5FB51
:100950000346002B01D00123FB73FB7B18461037A5
:10096000BD4680BD00540040BB7C700080B588B09F
:1009700000AF78600220FFF79EFE4FF44073FB60EB
:1009800012233B6101237B610023BB610423FB61D4
:1009900007F10C031946054806F098FB4FF40010C8
:1009A000FFF7A2FE00BF2037BD4680BD000400480F
:1009B00080B582B000AF78604FF40010FFF7ADFE55
:1009C0004FF44071034806F0F1FC00BF0837BD4604
:1009D00080BD00BF0004004880B483B000AF7860E1
:1009E0000649064BD3F880207B681343C1F880305A
:1009F00000BF0C37BD465DF8047B70470008005807
:100A000080B483B000AF78600549054B1A687B68F5
:100A100013430B6000BF0C37BD465DF8047B704785
:100A20000008005880B483B000AF0D4B9B6A9BB2A6
:100A30007B600B4B9B6A9BB23B6005E03B687B6035
:100A4000074B9B6A9BB23B607A683B689A42F5D140
:100A50003B6818460C37BD465DF8047B704700BF05
:100A60000028004080B485B000AF03460A46FB7101
:100A70001346BB71BA791D4913465B001344DB0072
:100A80000B4415331B78FB73FB7B062B09D0FA7BD9
:100A9000164913465B001344DB000B441433FA7908
:100AA0001A70FA79114913465B001344DB000B44BA
:100AB0001533FA7B1A70FA790C4913465B0013441C
:100AC000DB000B441433BA791A70BA79074913461C
:100AD0005B001344DB000B441533FA791A7000BF36
:100AE0001437BD465DF8047B704700BF80010020CD
:100AF00080B485B000AF03460A46FB711346BB7154
:100B0000294B1B78DBB2BA799A4232D0BA7927499D
:100B100013465B001344DB000B4414331B78FB7358
:100B2000FA7B224913465B001344DB000B44153368
:100B3000FA791A70FA791D4913465B001344DB00F9
:100B40000B441533BA791A70FA79184913465B00C9
:100B50001344DB000B441433FA7B1A70BA7913493F
:100B600013465B001344DB000B441433FA791A700C
:100B700014E0FA790D4913465B001344DB000B4483
:100B80001533BA791A70BA79084913465B001344D1
:100B9000DB000B441433FA791A7000BF1437BD46DA
:100BA0005DF8047B704700BF100200208001002028
:100BB00080B584B000AF0346FB714E4B1B78DBB2AF
:100BC000062B18D14B4B1B78DAB24B4B1A70494AA3
:100BD000FB791370FA79494913465B001344DB0033
:100BE0000B44153306221A70454B4FF0FF321A6042
:100BF0000023FB8178E000F009F90346FB81FA79D4
:100C0000F9793E480B465B000B44DB000344083394
:100C10001968FB891944394813465B001344DB000B
:100C2000034408331960FA79344913465B001344CE
:100C3000DB000B4408331B68BB602E4B1B78DBB218
:100C400019462E4A0B465B000B44DB001344083365
:100C50001A68BB689A4237D8264B1B787B737A7B1D
:100C6000264913465B001344DB000B4415331B7805
:100C70003B7313E07A7B214913465B001344DB008E
:100C80000B4415331B787B737A7B1C4913465B003E
:100C90001344DB000B4415331B783B733B7B062B63
:100CA0000BD03A7B154913465B001344DB000B4421
:100CB00008331A68BB689A42DCD97A7BFB79114603
:100CC0001846FFF7CFFE0FE00A4B1B78DAB2FB792C
:100CD00011461846FFF70CFF064B1B78DAB2064B9D
:100CE0001A70044AFB791370FB8918461037BD4609
:100CF00080BD00BF100200201102002080010020F2
:100D00001402002080B485B000AF03460A46FB7190
:100D10001346BB71394B1B78DBB2FA799A4211D179
:100D2000364B1B78DAB2364B1A70FA7935491346CE
:100D30005B001344DB000B4415331B78DAB22F4BF6
:100D40001A703EE0FA792F4913465B001344DB002A
:100D50000B4414331B78FB73FA792A4913465B0062
:100D60001344DB000B4415331B78BB73FA7BF97912
:100D700024480B465B000B44DB00034415331B780F
:100D8000D8B2204913465B001344DB000B441533F3
:100D900002461A70BB7B062B13D0BA7BF97919482F
:100DA0000B465B000B44DB00034414331B78D8B2C2
:100DB000144913465B001344DB000B441433024612
:100DC0001A70FA790F4913465B001344DB000B4499
:100DD0000C3301221A70094B1B78DBB2062B07D1AA
:100DE000BB79002B04D1084B4FF0FF321A6000BFD3
:100DF00000BF1437BD465DF8047B70471002002029
:100E000011020020800100201402002080B582B071
:100E100000AF1A4B1B68B3F1FF3F26D0FFF702FE6D
:100E20007860164B1A687B689A4205D3134B1A6890
:100E30007B68D31A7B600AE0114B1B881A467B68DB
:100E4000D31A3B600D4B1A683B6813447B600D4B13
:100E50001B781A467B6802FB03F37B600A4B1B7806
:100E60001A467B68D3407B6001E000237B607B688F
:100E70009BB218460837BD4680BD00BF1402002053
:100E800052030020510300205003002080B582B09F
:100E900000AF0346FB80FB88002B08D1FFF7C2FDA3
:100EA0000246244B1A60032006F095F83EE0FB88CA
:100EB000012B03D8204B1B78012B02D0FB88013B70
:100EC000FB8000BF1D4B1B681B68DB6803F004033D
:100ED000002BF7D0194B1B681B68184A1268126860
:100EE000D268D2B262F49062DA60154B4FF40022FD
:100EF000DA60032006F07DF81249124B5B691B0C87
:100F00001B04FA8813434B61FFF78CFD0246094B23
:100F10001A600A4B1B681B68084A126812689268BC
:100F200042F480629A60AFF3008000BF0837BD468C
:100F300080BD00BF14020020500300204C0300209D
:100F4000000800580028004080B584B000AF474B2F
:100F50009B6803F48063B3F5806F08D100BF444BF6
:100F60001B681B68DB6803F00403002BF7D1404BC0
:100F70001B681B683E4A12681268926822F48062FD
:100F80009A603C4B1B78FB73FA7B3B4913465B0032
:100F90001344DB000B4408331B68BB60FFF736FFCC
:100FA0000346FB80FA88BB689A4205D90023BB81BF
:100FB000324B01221A704DE0FB88314A128892B2FE
:100FC00013441A46BB689A4206D22D4B1B88BB813C
:100FD0002A4B00221A703DE0BB689AB2FB88D31AF4
:100FE000BB81264B01221A7034E0FA7B224913465A
:100FF0005B001344DB000B4408331A68FB889A42F9
:101000000AD2FA7B1C4913465B001344DB000B44F5
:10101000083300221A6013E0FA7BF97B16480B466E
:101020005B000B44DB00034408331968FB88C91AD2
:10103000114813465B001344DB0003440833196076
:10104000FA7B0D4913465B001344DB000B44153358
:101050001B78FB73FB7B062BC7D1BB891846FFF7B8
:1010600015FF00BF1037BD4680BD00BF00280040FF
:101070004C030020100200208001002018020020F4
:101080005403002080B58AB000AFEFF310837B617A
:101090007B697B6272B65E4B1B681B68CA225A6210
:1010A0005B4B1B681B6853225A62594B1B681B68B9
:1010B000574A12681268926822F480629A60554B0F
:1010C0001B7887F8233097F82320534913465B0099
:1010D0001344DB000B440C331B78DBB2022B70D1C2
:1010E00097F823204C4913465B001344DB000B4464
:1010F0001B68FB6197F82320474913465B001344A4
:10110000DB000B4410331B68BB61444B1B78DBB224
:10111000002B4ED097F823203F4913465B00134421
:10112000DB000B440D331B78DBB2012B25D197F884
:10113000233001211846FFF7E5FD7B6A3B613B69DF
:1011400083F3108897F82320334913465B00134438
:10115000DB000B4404331A6897F823301146184615
:1011600000F040FA2A4B1B681B68CA225A62284BBF
:101170001B681B6853225A6213E07B6AFB60FB68A2
:1011800083F3108897F82330184600F0A1F9204B1C
:101190001B681B68CA225A621D4B1B681B685322BE
:1011A0005A6297F82330FA691946B86900F0A0FA34
:1011B00024E0FFF7C9FE7B6ABB60BB6883F310883D
:1011C0001CE000BF124B1B681B68DB6803F00403C4
:1011D000002BF7D00E4B1B681B680D4A1268126873
:1011E000D268D2B262F49062DA600D4B4FF4002202
:1011F000DA607B6A7B607B6883F31088044B1B6832
:101200001B68FF225A6200BF2837BD4680BD00BF61
:101210004C03002010020020800100201802002052
:101220000008005880B586B000AF03463960FB71F6
:10123000614A3B681360604B1B681B68CA225A6294
:101240005D4B1B681B6853225A625C4A5B4B9B6870
:1012500043F020039360594B9B68DBB203F0070314
:10126000DBB2C3F10403DAB2554B1A70534B1B695E
:1012700003F4FE034FF4FE02FA60FA6892FAA2F257
:10128000BA60BA68B2FA82F2D2B2D340DBB20133AA
:10129000DAB24C4B1A70494B1B699BB2C3F30E0375
:1012A0009BB201339AB2484B1A80474B1B88013BD3
:1012B000444A127802FB03F3A3F5A073404A127864
:1012C000D3403B613B694FF6FE72934204D93F4BDA
:1012D0004FF6FF721A8003E03B699AB23B4B1A80CB
:1012E0004FF40020FFF78CFB4FF40020FFF774FB56
:1012F000FB79002B43D1364B01221A70354B4FF04E
:10130000FF321A600023FB750CE0FA7D3249134668
:101310005B001344DB000B440C3300221A70FB7D8E
:101320000133FB75FB7D052BEFD92C4B06221A7080
:10133000214B1B681B68204A12681268926822F4CD
:1013400080629A601C4B1B681B681B4A12681268FB
:10135000D268D2B262F49062DA60214B4FF400227C
:10136000DA60032005F045FE134B1B681B68124A28
:1013700012681268926842F480429A600AE00E4B4A
:101380001B681B68DB6803F48063002B02D003201A
:1013900005F021FE084B1B681B68FF225A620022E1
:1013A0000321032005F0D5FD032005F0ECFD00BF6F
:1013B0001837BD4680BD00BF4C0300200028004008
:1013C000500300205103002052030020540300204A
:1013D00018020020140200208001002010020020CA
:1013E0000008005880B48BB000AFF860B9603B6073
:1013F0001346FB71002387F82630EFF31083FB615F
:10140000FB693B6272B604E097F82630013387F837
:10141000263097F82630052B0CD897F826202B4934
:1014200013465B001344DB000B440C331B78DBB228
:10143000002BE9D197F82630062B37D097F82620D5
:10144000224913465B001344DB000B440C3301229A
:101450001A703B6ABB61BB6983F3108897F826203A
:101460001A4913465B001344DB000B441033FA683F
:101470001A6097F82620154913465B001344DB00D9
:101480000B440D33FA791A7097F826200F4913464A
:101490005B001344DB000B443A681A60BB6897F8A2
:1014A00026201A70002387F8273007E03B6A7B610B
:1014B0007B6983F31088012387F8273097F827305A
:1014C00018462C37BD465DF8047B7047800100202C
:1014D00080B586B000AF0346FB71EFF31083FB606D
:1014E000FB687B6172B6032005F05BFD374B1B6820
:1014F0001B68CA225A62354B1B681B6853225A620A
:10150000FA79334913465B001344DB000B440C3378
:101510001B78DBB2022B48D1FB7900211846FFF77C
:10152000F1FB2C4B1B78FB74FB7C062B35D12A4B33
:101530009B6803F48063B3F5806F08D100BF234B31
:101540001B681B68DB6803F00403002BF7D11F4BFB
:101550001B681B681D4A12681268926822F4806238
:101560009A6000BF194B1B681B68DB6803F004031B
:10157000002BF7D0154B1B681B68144A12681268C1
:10158000D268D2B262F49062DA60144B4FF4002257
:10159000DA60032005F02DFD07E0114B1B78DBB26C
:1015A000FA7C9A4201D0FFF7CFFC084B1B681B68FE
:1015B000FF225A62032005F0E6FC7B69BB60BB6832
:1015C00083F3108800BF1837BD4680BD4C03002050
:1015D0008001002010020020002800400008005870
:1015E0001102002080B586B000AF03463960FB7160
:1015F000FA793B4913465B001344DB000B440C3380
:101600001B78DBB2022B03D1FB791846FFF760FF92
:10161000EFF31083FB60FB687B6172B6032005F07B
:10162000C0FC304B1B681B68CA225A622D4B1B68DA
:101630001B6853225A62FA79294913465B00134406
:10164000DB000B440C3302221A70FA79244913464A
:101650005B001344DB000B4408333A681A60FA79E4
:101660001F4913465B001344DB000B4404333A6804
:101670001A60FB791846FFF79BFA03467B821A4BE8
:101680001B787B74194B1B78DBB27A7C9A4202D0B0
:10169000FFF75AFC13E0FA79F97911480B465B0021
:1016A0000B44DB000344083319687B8AC91A0C48D1
:1016B00013465B001344DB00034408331960094BF5
:1016C0001B681B68FF225A62032005F05CFC7B69E3
:1016D000BB60BB6883F3108800BF1837BD4680BD70
:1016E000800100204C030020100200201102002085
:1016F00080B584B000AFF8600B467A60FB727B68FF
:10170000984700BF1037BD4680BD80B483B000AF9E
:1017100078604FF0B0414FF0B043D3F8903023F0F1
:1017200018027B681343C1F8903000BF0C37BD46E8
:101730005DF8047B704780B485B000AF78604FF0EF
:10174000B0414FF0B043DA6C7B681343CB644FF089
:10175000B043DA6C7B681340FB60FB6800BF143752
:10176000BD465DF8047B704780B500AF05F036FAE2
:1017700000F014F800F00EF900F090F800F096F880
:1017800000F0BCF80AF000FAFEF7E4FE4FF0FF307C
:101790000DF08AF90AF000FAF8E7000080B5AEB063
:1017A00000AF07F170034822002118460DF0DFFB5F
:1017B00007F1540300221A605A609A60DA601A61D5
:1017C0005A619A613B1D5022002118460DF0CFFB53
:1017D0000020FFF79AFF304A2F4B1B6823F4C063A9
:1017E00043F4007313602C4B1B6803F4C0633B602D
:1017F0003B6807233B674FF480337B670123BB675C
:101800004FF48073FB674023C7F880300023C7F88C
:101810009C3007F17003184607F06EF80346002B62
:1018200001D000F0F9F86F237B650223BB6500232C
:10183000FB6500233B6600237B660023BB66002319
:10184000FB6607F154030121184607F0B3FB03467A
:10185000002B01D000F0E0F843F605037B60002385
:10186000FB614FF440337B624FF480737B644FF431
:101870008043BB640223FB6400233B653B1D184689
:1018800007F0D3FF0346002B01D000F0C5F800BFDE
:10189000B837BD4680BD00BF0004005880B400AF1B
:1018A00000BFBD465DF8047B7047000080B500AF07
:1018B000104B114A1A600F4B00225A600D4B0F2239
:1018C0009A600C4B47F6FF72DA600A4808F033FA68
:1018D0000346002B01D000F09FF8002200210548AC
:1018E00008F018FB0346002B01D000F095F800BF6C
:1018F00080BD00BF940600200028004080B500AFE6
:10190000224B234A1A60214B4FF4E1325A601F4B9D
:1019100000229A601D4B0022DA601C4B00221A61E3
:101920001A4B0C225A61194B00229A61174B002264
:10193000DA61164B00221A62144B00225A62134BD2
:1019400000229A62114808F0F1FB0346002B01D0F7
:1019500000F062F800210D480AF032F80346002B2F
:1019600001D000F059F8002108480AF067F8034652
:10197000002B01D000F050F8044809F0E8FF0346BE
:10198000002B01D000F048F800BF80BD0806002001
:101990000038014080B586B000AF3B1D00221A60C0
:1019A0005A609A60DA601A610420FFF7C4FE0220D0
:1019B000FFF7C1FE0120FFF7BEFE002221211348E0
:1019C00005F0D2FD10237B60114BBB600123FB604F
:1019D0003B1D19460F4805F079FB21237B6001234D
:1019E000BB600023FB6000233B613B1D1946074899
:1019F00005F06CFB002200210A2005F0AAFA0A205B
:101A000005F0C1FA00BF1837BD4680BD000400488C
:101A1000000021100008004880B400AF00BFBD46A0
:101A20005DF8047B704780B400AF4FF0B0424FF0D8
:101A3000B043D3F8903043F40043C2F8903000BF75
:101A4000BD465DF8047B704780B485B000AF786018
:101A50004FF0B0414FF0B043DA6C7B681343CB6476
:101A60004FF0B043DA6C7B681340FB60FB6800BF4B
:101A70001437BD465DF8047B704780B485B000AF75
:101A800078604FF0B0414FF0B0431A6D7B6813435C
:101A90000B654FF0B0431A6D7B681340FB60FB6829
:101AA00000BF1437BD465DF8047B704780B485B035
:101AB00000AF78604FF0B0414FF0B0431A6E7B68D2
:101AC00013430B664FF0B0431A6E7B681340FB6004
:101AD000FB6800BF1437BD465DF8047B704780B5D6
:101AE00000AF4FF40020FFF7C8FF00BF80BD00002B
:101AF00080B582B000AF78607B681B68084A93426B
:101B000009D1FFF790FF00220021032005F021FA00
:101B1000032005F038FA00BF0837BD4680BD00BF7E
:101B20000028004080B588B000AF786007F10C0352
:101B300000221A605A609A60DA601A617B681B683A
:101B4000124A93421ED14FF48040FFF7AFFF0220AC
:101B5000FFF77AFFC023FB6002233B6100237B6118
:101B60000023BB610723FB6107F10C0319460848FA
:101B700005F0ACFA00220021242005F0EAF9242027
:101B800005F001FA00BF2037BD4680BD0038014096
:101B90000004004880B400AF00BFBD465DF8047B80
:101BA000704780B400AFFEE780B400AFFEE780B4BA
:101BB00000AFFEE780B400AFFEE780B400AF00BF27
:101BC000BD465DF8047B704780B400AF00BFBD46E2
:101BD0005DF8047B704780B400AF00BFBD465DF880
:101BE000047B704780B500AF05F052F800BF80BDA0
:101BF00080B500AF034808F049FAFFF743FA00BF89
:101C000080BD00BF9406002080B500AF102005F015
:101C1000DDFC00BF80BD000080B500AF024808F0C9
:101C2000D5FA00BF80BD00BF0806002080B500AF18
:101C30000CF0EAFD00BF80BD80B500AF0CF0ACFD3C
:101C400000BF80BD80B400AF264B00229A60254AB9
:101C5000244BD3F8883043F47003C2F888304FF037
:101C6000B0424FF0B0431B6843F0010313604FF0E4
:101C7000B0434FF4E0229A604FF0B0414FF0B043D0
:101C80001A68194B13400B604FF0B0424FF0B0434D
:101C9000D3F8943023F00503C2F894304FF0B042EB
:101CA0004FF0B043D3F8983023F00103C2F89830D6
:101CB0004FF0B0430D4ADA604FF0B0430B4A1A615F
:101CC0004FF0B0424FF0B0431B6823F48023136001
:101CD0004FF0B04300229A6100BFBD465DF8047B1F
:101CE000704700BF00ED00E0FBFEF6FA0010042292
:101CF00080B487B000AF4FF0B0431B681B0903F0FE
:101D00000F03474A52F823303B614FF0B0439B68C2
:101D100003F00C030C2B67D801A252F823F000BF8C
:101D2000551D0008E91D0008E91D0008E91D00080F
:101D30005D1D0008E91D0008E91D0008E91D0008F7
:101D4000651D0008E91D0008E91D0008E91D0008DF
:101D50006D1D0008334A3B69136049E0314B324A3C
:101D60001A6045E02F4B314A1A6041E04FF0B04312
:101D7000DB6803F00303FB604FF0B043DB681B0933
:101D800003F007030133BB60FB68022B05D1264A31
:101D9000BB68B2FBF3F37B610DE0FB68032B05D15D
:101DA000224ABB68B2FBF3F37B6104E03A69BB688B
:101DB000B2FBF3F37B614FF0B043DB681B0A03F027
:101DC0007F027B6902FB03F37B614FF0B043DB686A
:101DD0005B0F03F0070301337B607A697B68B2FB1A
:101DE000F3F3104A136003E00E4A3B69136000BF2F
:101DF0004FF0B0439B681B0903F00F030C4A52F8E5
:101E000023303B60074B1A683B68B2FBF3F3054A8B
:101E1000136000BF1C37BD465DF8047B704700BFF0
:101E20006CF00008040000200024F4000048E801E1
:101E30000CF0000880B584B000AF786039607B6832
:101E4000002B03D14FF0FF33FB6030E03B681A6892
:101E50007B681A603B685A687B685A603B689A687E
:101E60007B689A603B681A7B7B681A733B681A69C7
:101E70007B681A613B685A697B685A613B689A695A
:101E80007B689A617B680C4A1A627B680B4ADA614C
:101E90007B687A685A627B681B68002B04D07B6879
:101EA0001B689847F86002E04FF0FF33FB60FB6867
:101EB00018461037BD4680BD5F250008C1250008C3
:101EC00080B582B000AF78607B6893F82830002B33
:101ED00008D1786800F0DEFA0346002B02D04FF0FC
:101EE000FF3304E07B68012283F828200023184692
:101EF0000837BD4680BD80B582B000AF78607B6892
:101F000093F82830012B11D1786800F078F8034657
:101F1000002B02D04FF0FF330DE0786800F07BF922
:101F20000346002B02D04FF0FF3304E07B68002211
:101F300083F82820002318460837BD4680BD80B5A9
:101F400082B000AF786039607B681C33396818460E
:101F500000F03EFC0346002B02D04FF0FF3300E0C0
:101F6000002318460837BD4680BD000080B483B00A
:101F700000AF786039603B6801229A703B680022AC
:101F80005A703B6801221A703B680022DA703B6885
:101F9000074A5A603B68064A9A603B684FF0000265
:101FA000DA60002318460C37BD465DF8047B7047A5
:101FB0000000484180B582B000AF78607B6893F83C
:101FC0002930012B01D1002315E07B6893F82A30DA
:101FD000002B0BD17B681C330121184600F009FC53
:101FE0000346002B02D04FF0FF3304E07B68012250
:101FF00083F82920002318460837BD4680BD80B5E8
:1020000082B000AF78607B6893F82930002B01D153
:10201000002315E07B6893F82A30002B0BD17B68F6
:102020001C330021184600F0E4FB0346002B02D0CD
:102030004FF0FF3304E07B68002283F8292000235F
:1020400018460837BD4680BD80B582B000AF7860C5
:1020500039603968786800F0A9F9034618460837EE
:10206000BD4680BD80B582B000AF786087ED000AC4
:1020700097ED000A786800F0DDF903461846083746
:10208000BD4680BD80B588B000AF786039607B68A0
:102090001C3307F118021146184600F052FC0346A3
:1020A000002B02D04FF0FF3388E0B7F9183007EE6D
:1020B000903AF8EEE77AC7ED027A7B681C3307F1B5
:1020C00018021146184600F0BAFB0346002B02D056
:1020D0004FF0FF3372E03B7E07EE903AF8EE677AFE
:1020E000C7ED037A7B681C3307F1180211461846C6
:1020F00000F038FC0346002B02D04FF0FF335DE0C8
:10210000B7F9183007EE903AF8EEE77AC7ED047A9F
:102110007B681C3307F118021146184600F0A6FB35
:102120000346002B02D04FF0FF3347E03B7E07EE23
:10213000903AF8EE677AC7ED057A07F11C030222A0
:10214000002118460CF013FF7B681C3307F11C02BA
:102150001146184600F01AFB0346002B02D04FF040
:10216000FF332BE0B7F91C3007EE903AF8EEE77A30
:1021700007F10803B0EE670A184600F0B7F9F0EE71
:10218000407A3B68C3ED007A3B68D3ED007AF5EE08
:10219000C07AF1EE10FA03D53B684FF000021A60E6
:1021A0003B68D3ED007A9FED077AF4EEC77AF1EE43
:1021B00010FA02DD3B68044A1A60002318462037F3
:1021C000BD4680BD0000C8420000C84280B582B054
:1021D00000AF78607B6893F82A30012B01D100238F
:1021E00015E07B6893F82930002B0BD17B681C33FA
:1021F0000121184600F0FDFA0346002B02D04FF0F3
:10220000FF3304E07B68012283F82A20002318466C
:102210000837BD4680BD80B582B000AF78607B686E
:1022200093F82A30002B01D1002315E07B6893F846
:102230002930002B0BD17B681C330021184600F09D
:10224000D8FA0346002B02D04FF0FF3304E07B683E
:10225000002283F82A20002318460837BD4680BD97
:1022600080B582B000AF786039603968786800F076
:102270009DF8034618460837BD4680BD80B582B03C
:1022800000AF786087ED000A97ED000A786800F0EB
:10229000D1F8034618460837BD4680BD80B588B0E2
:1022A00000AF786039607B681C3307F11802114673
:1022B000184600F068FB0346002B02D04FF0FF33B6
:1022C0006FE0B7F9183007EE903AF8EEE77AC7ED0D
:1022D000027A7B681C3307F118021146184600F099
:1022E000DCFA0346002B02D04FF0FF3359E03B7E6F
:1022F00007EE903AF8EE677AC7ED037A7B681C33F5
:1023000007F118021146184600F04EFB0346002B59
:1023100002D04FF0FF3344E0B7F9183007EE903A9F
:10232000F8EEE77AC7ED047A7B681C3307F11802F0
:102330001146184600F0DBFA0346002B02D04FF09E
:10234000FF332EE03B7E07EE903AF8EE677AC7ED5A
:10235000057A07F11C030222002118460CF007FE43
:102360007B681C3307F11C021146184600F01FFA67
:102370000346002B02D04FF0FF3312E0B7F91C30B8
:1023800007EE903AF8EEE77A07F10803B0EE670A35
:10239000184600F0ABF8F0EE407A3B68C3ED007AE7
:1023A000002318462037BD4680BD000080B584B0AC
:1023B00000AF786039600023FB607B681C3307F155
:1023C0000B021146184600F083F90346002B02D099
:1023D0004FF0FF3325E0FB7A032B1DD801A252F802
:1023E00023F000BFF5230008FF230008092400089C
:1023F000112400083B684FF000021A6010E03B68AF
:102400004FF07E521A600BE03B68084A1A6007E002
:102410003B68074A1A6003E04FF0FF33FB6000BFE0
:10242000FB6818461037BD4680BD00BF0000E04085
:102430000000484180B584B000AF786087ED000AA5
:10244000D7ED007AB7EE007AF4EEC77AF1EE10FA23
:1024500001D801230BE0D7ED007AB1EE0C7AF4EE4F
:10246000C77AF1EE10FA01D8022300E00323FB73D0
:102470007B681C33FA7B1146184600F002F90346CC
:10248000002B02D04FF0FF3300E000231846103736
:10249000BD4680BD80B582B000AF78607B681C33DC
:1024A0000021184600F0A5F90346002B02D04FF09A
:1024B000FF3317E07B681C330121184600F040F918
:1024C0000346002B02D04FF0FF330BE0B7EE000ABB
:1024D0007868FFF7AFFF0346002B02D04FF0FF33C1
:1024E00000E0002318460837BD4680BD80B483B0A5
:1024F00000AF786087ED000A7B6893ED037A7B6814
:10250000D3ED017A37EE677AD7ED007A27EE277A96
:102510007B68D3ED026A7B68D3ED017A66EEA76A29
:102520007B6893ED006A7B68D3ED037A66EE277AC9
:1025300076EEE77A37EE277A7B68D3ED026A7B681E
:10254000D3ED007A76EEE77AC7EE276AF0EE667A88
:10255000B0EE670A0C37BD465DF8047B704790B556
:1025600087B000AFF8607A601A460B46FB721346DC
:102570003B81FB687B617B699B68002B0ED17B698B
:102580005C697B691B7B98B2FB7A63F07F03DBB2EB
:1025900099B23B897A68A04703460DE07B695C6984
:1025A0007B691B7B98B2FB7A43F04003DBB299B2A4
:1025B0003B897A68A047034618461C37BD4690BD44
:1025C00090B587B000AFF8607A601A460B46FB7290
:1025D00013463B81FB687B617B699B68002B0ED1B6
:1025E0007B691C697B691B7B98B2FB7A63F07F0374
:1025F000DBB299B23B897A68A04703460DE07B695C
:102600001C697B691B7B98B2FB7A43F04003DBB209
:1026100099B23B897A68A047034618461C37BD46E5
:1026200090BD90B587B000AFF8607A601A460B464F
:10263000FB7213463B81FB685C68FB6898683B89CA
:10264000F97A7A68A04778617B6918461C37BD46DD
:1026500090BD90B587B000AFF8607A601A460B461F
:10266000FB7213463B81FB681C68FB6898683B89DA
:10267000F97A7A68A04778617B6918461C37BD46AD
:1026800090BD80B584B000AF78600B46FB7007F159
:102690000802012320217868FFF7C3FFF860FB6878
:1026A000002B0FD1FB7803F00303DAB23B7A62F31D
:1026B00001033B7207F10802012320217868FFF72C
:1026C000C8FFF860FB6818461037BD4680BD0000A3
:1026D00080B584B000AF7860396007F1080201234B
:1026E00020217868FFF79DFFF8603B7AC3F3010370
:1026F000DBB2032B1AD801A252F823F00D270008F1
:10270000152700081D270008252700083B68002220
:102710001A700FE03B6801221A700BE03B6802223E
:102720001A7007E03B6803221A7003E03B6804223A
:102730001A7000BFFB6818461037BD4680BD00BF49
:1027400080B584B000AF78600B46FB7007F10802DB
:10275000012320217868FFF764FFF860FB68002BF5
:102760000FD1FB7803F00103DAB23B7A62F3820304
:102770003B7207F10802012320217868FFF769FF07
:10278000F860FB6818461037BD4680BD80B584B040
:1027900000AF7860396002233A6828217868FFF733
:1027A00040FFF860FB6818461037BD4680BD80B515
:1027B00084B000AF7860396002233A682A217868D3
:1027C000FFF72FFFF860FB6818461037BD4680BD45
:1027D00080B584B000AF7860396001233A680F217A
:1027E0007868FFF71EFFF860FB6818461037BD4693
:1027F00080BD80B584B000AF78600B46FB7007F1F8
:102800000802012320217868FFF70BFFF860FB68BE
:10281000002B0FD1FB7803F00103DAB23B7A62F3AD
:10282000C7133B7207F10802012320217868FFF7E4
:1028300010FFF860FB6818461037BD4680BD80B5B4
:1028400084B000AF7860396001233A68302178683D
:10285000FFF7E7FEF8603B681B785B08DAB23B687D
:102860001A70FB6818461037BD4680BD80B584B02D
:1028700000AF7860396001233A6831217868FFF74A
:10288000D0FEF8603B681B785B08DAB23B681A70D0
:10289000FB6818461037BD4680BD80B586B000AFD6
:1028A0007860396007F10F02012332217868FFF761
:1028B000B8FE78617B69002B14D107F11002012367
:1028C00035217868FFF7ADFE78613B7CC3F30103E7
:1028D000DBB2FB74FB7C1B02FA7B1344DB10DAB225
:1028E0003B681A707B6918461837BD4680BD80B5B5
:1028F00086B000AF7860396007F10F020123332101
:102900007868FFF78EFE78617B69002B14D107F1A0
:102910001002012335217868FFF783FE78613B7C44
:10292000C3F38103DBB2FB74FB7C1B02FA7B134411
:10293000DB10DAB23B681A707B6918461837BD465F
:1029400080BD80B584B000AF7860396002233A68FA
:1029500036217868FFF765FEF860FB681846103787
:10296000BD4680BD80B584B000AF78603960022379
:102970003A683A217868FFF754FEF860FB68184619
:102980001037BD4680BD80B584B000AF7860396037
:1029900002233A683C217868FFF743FEF860FB6841
:1029A00018461037BD4680BD80B584B000AF786052
:1029B000396002233A683E217868FFF732FEF860FA
:1029C000FB6818461037BD4680BD000080B584B056
:1029D00000AF786039600023FB607B68002B03D177
:1029E0004FF0FF33FB604DE03B681A687B681A606C
:1029F0003B685A687B685A603B689A687B689A6053
:102A00003B681A7B7B681A733B681A697B681A619A
:102A10003B685A697B685A613B689A697B689A612E
:102A20007B681B4A1A627B681A4ADA617B687A689B
:102A30005A627B681B68002B03D14FF0FF33FB60A9
:102A400020E07B681B6898470346002B03D04FF0BB
:102A5000FF33FB6016E07B689B68022B12D17B681A
:102A600093F82830002B0DD10123FB72FB7A1A4614
:102A70001021786800F0DFF90346002B02D04FF0F8
:102A8000FF33FB60FB6818461037BD4680BD00BFB2
:102A9000F73000087D31000880B582B000AF786063
:102AA0007B6893F82830002B08D1786800F0CAFAC8
:102AB0000346002B02D04FF0FF3304E07B68012275
:102AC00083F82820002318460837BD4680BD80B50E
:102AD00082B000AF78607B6893F82830012B11D169
:102AE000786800F077F80346002B02D04FF0FF33F0
:102AF0000DE0786800F018F90346002B02D04FF083
:102B0000FF3304E07B68002283F828200023184666
:102B10000837BD4680BD80B582B000AF78603960AF
:102B20007B681C333968184600F0A6FC0346002B6E
:102B300002D04FF0FF3300E0002318460837BD46AF
:102B400080BD000080B483B000AF786039603B681E
:102B500000229A703B6801225A703B6801221A7069
:102B60003B680022DA703B684FF000025A603B6815
:102B7000054A9A603B68044ADA60002318460C371D
:102B8000BD465DF8047B70470000964280B582B078
:102B900000AF78607B6893F82930012B01D10023C6
:102BA00014E07B6803F11C027B6893F82B30194614
:102BB000104600F0D5FB0346002B02D04FF0FF3348
:102BC00004E07B68012283F8292000231846083797
:102BD000BD4680BD80B582B000AF78607B6893F859
:102BE0002930002B01D1002324E07B6893F82A30A0
:102BF000002B1AD17B6803F11C027B682B3319462A
:102C0000104600F0D3FB0346002B02D04FF0FF33F9
:102C100010E07B681C330021184600F0A1FB03463E
:102C2000002B02D04FF0FF3304E07B68002283F8D2
:102C30002920002318460837BD4680BD80B582B0E4
:102C400000AF786039603968786800F00FF90346A2
:102C500018460837BD4680BD80B582B000AF7860A9
:102C600087ED000A7B6893F82930012B06D197ED98
:102C7000000A786800F04EF9034605E097ED000A77
:102C8000786800F09FF9034618460837BD4680BDB6
:102C900080B584B000AF7860396007F10C0304227E
:102CA000002118460CF063F97B681C3307F10C0215
:102CB0001146184600F0BEFB0346002B02D04FF031
:102CC000FF3309E0FB68184600F0CCFAF0EE407ADA
:102CD0003B68C3ED007A002318461037BD4680BD1F
:102CE00080B582B000AF78607B6893F82A30012B02
:102CF00001D1002314E07B6803F11C027B6893F888
:102D00002B301946104600F02BFB0346002B02D057
:102D10004FF0FF3304E07B68012283F82A20002370
:102D200018460837BD4680BD80B582B000AF7860D8
:102D30007B6893F82A30002B01D1002324E07B68C4
:102D400093F82930002B1AD17B6803F11C027B68B1
:102D50002B331946104600F029FB0346002B02D006
:102D60004FF0FF3310E07B681C330021184600F061
:102D7000F7FA0346002B02D04FF0FF3304E07B68E4
:102D8000002283F82A20002318460837BD4680BD5C
:102D900080B582B000AF786039603968786800F03B
:102DA00065F8034618460837BD4680BD80B582B039
:102DB00000AF786087ED000A7B6893F82A30012B1A
:102DC00006D197ED000A786800F0A4F8034605E004
:102DD00097ED000A786800F0F5F8034618460837C2
:102DE000BD4680BD80B584B000AF7860396007F122
:102DF0000C030222002118460CF0B9F87B681C3342
:102E000007F10C021146184600F025FB0346002B83
:102E100002D04FF0FF330AE0B7F90C30184600F04B
:102E200039FAF0EE407A3B68C3ED007A0023184689
:102E30001037BD4680BD80B582B000AF78600B46CC
:102E4000FB701346BB707B6803F11C00BA1CF97859
:102E5000012300F0EEF90346002B02D04FF0FF33C0
:102E600000E0002318460837BD4680BD80B584B019
:102E700000AF786039600023FB607B681C3307F18A
:102E80000B021146184600F091FA0346002B02D0BF
:102E90004FF0FF3331E0FB7A052B29D801A252F81D
:102EA00023F000BFBD2E0008C72E0008D12E000859
:102EB000D92E0008E12E0008E92E00083B684FF0EB
:102EC00000021A6018E03B684FF07E521A6013E06F
:102ED0003B680C4A1A600FE03B680B4A1A600BE033
:102EE0003B680A4A1A6007E03B68094A1A6003E037
:102EF0004FF0FF33FB6000BFFB6818461037BD463C
:102F000080BD00BF000020410000C84100004842D1
:102F10000000964280B584B000AF786087ED000A6B
:102F2000D7ED007AB7EE007AF4EEC77AF1EE10FA38
:102F300001D8012321E0D7ED007AB2EE047AF4EE55
:102F4000C77AF1EE10FA01D8022316E0D7ED007A25
:102F5000B3EE097AF4EEC77AF1EE10FA01D8032342
:102F60000BE0D7ED007A9FED167AF4EEC77AF1EE1A
:102F700010FA01D8042300E00523FB737B681C339F
:102F8000FA7B1146184600F0EBF90346002B02D0FD
:102F90004FF0FF330FE07B6803F11C027B682B339B
:102FA0001946104600F002FA0346002B02D04FF0FB
:102FB000FF3300E0002318461037BD4680BD00BF38
:102FC0000000484280B483B000AF786087ED000A0B
:102FD000D7ED007AB7EE007AF4EEC77AF1EE10FA88
:102FE00001D8012321E0D7ED007AB2EE047AF4EEA5
:102FF000C77AF1EE10FA01D8022316E0D7ED007A75
:10300000B3EE097AF4EEC77AF1EE10FA01D8032391
:103010000BE0D7ED007A9FED0A7AF4EEC77AF1EE75
:1030200010FA01D8042300E005237A6882F82B30D7
:10303000002318460C37BD465DF8047B704700BF7F
:103040000000484280B582B000AF78607B681C33D6
:103050000121184600F021FA0346002B02D04FF060
:10306000FF3344E07B681C330021184600F078F9F8
:103070000346002B02D04FF0FF3338E07B681C334F
:103080000221184600F046F90346002B02D04FF00B
:10309000FF332CE07B681C330121184600F014F943
:1030A0000346002B02D04FF0FF3320E07B689B6883
:1030B000002B0BD17B681C330021184600F013FA5B
:1030C0000346002B0ED04FF0FF3310E07B681C331B
:1030D0000121184600F007FA0346002B02D04FF0FA
:1030E000FF3304E07B68032283F82B20002318467B
:1030F0000837BD4680BD90B589B000AFF8607A60F2
:103100001A460B46FB7213463B810023BB61FB68EA
:103110007B617B699B68002B21D10023FB8318E036
:103120007B695C697B691B7B98B2FB7A9AB2FB8BEB
:10313000134499B2FB8B7A681A440123A047B86103
:10314000BB69002B02D04FF0FF3313E0FB8B013340
:10315000FB83FA8B3B899A42E2D3BB690AE07B6925
:103160005C697B691B7B98B2FB7A99B23B897A6870
:10317000A047034618462437BD4690BD90B589B098
:1031800000AFF8607A601A460B46FB7213463B812B
:103190000023BB61FB687B617B699B68002B21D1AD
:1031A0000023FB8318E07B691C697B691B7B98B259
:1031B000FB7A9AB2FB8B134499B2FB8B7A681A4460
:1031C0000123A047B861BB69002B02D04FF0FF3349
:1031D00013E0FB8B0133FB83FA8B3B899A42E2D3EA
:1031E000BB690AE07B691C697B691B7B98B2FB7A2F
:1031F00099B23B897A68A047034618462437BD46F2
:1032000090BD90B587B000AFF8607A601A460B4663
:10321000FB7213463B81FB685C68FB6898683B89DE
:10322000F97A7A68A04778617B6918461C37BD46F1
:1032300090BD90B587B000AFF8607A601A460B4633
:10324000FB7213463B81FB681C68FB6898683B89EE
:10325000F97A7A68A04778617B6918461C37BD46C1
:1032600090BD000080B483B000AF78607B6807EE4B
:10327000903AF8EEE77A9FED067AC7EE876AF0EEAD
:10328000667AB0EE670A0C37BD465DF8047B70477E
:103290000000804580B483B000AF0346FB80B7F9DF
:1032A000063007EE903AF8EEE77A9FED067AC7EE21
:1032B000876AF0EE667AB0EE670A0C37BD465DF8B5
:1032C000047B70470000C84280B584B000AF7860CE
:1032D0000B46FB7007F10802012310217868FFF705
:1032E00090FFF860FB68002B0FD1FB7803F001031F
:1032F000DAB23B7A62F341033B7207F10802012321
:1033000010217868FFF795FFF860FB6818461037C2
:10331000BD4680BD80B584B000AF78600B46FB70C1
:1033200007F10802012310217868FFF76AFFF860AF
:10333000FB68002B0FD1FB7803F00303DAB23B7A72
:1033400062F383033B7207F10802012310217868BE
:10335000FFF76FFFF860FB6818461037BD4680BD69
:1033600080B584B000AF78600B46FB7007F10802AF
:10337000012310217868FFF744FFF860FB68002BF9
:103380000FD1FB7803F00703DAB23B7A62F306133E
:103390003B7207F10802012310217868FFF749FF0B
:1033A000F860FB6818461037BD4680BD80B584B014
:1033B00000AF7860396007F10802012310217868B6
:1033C000FFF71FFFF8603B7AC3F30213DBB2052B54
:1033D00026D801A252F823F0F1330008F93300088F
:1033E00001340008093400081134000819340008B9
:1033F0003B6800221A7017E03B6801221A7013E044
:103400003B6802221A700FE03B6803221A700BE03F
:103410003B6804221A7007E03B6805221A7003E03B
:103420003B6801221A7000BFFB6818461037BD4682
:1034300080BD00BF80B584B000AF786039600323E1
:103440003A6828217868FFF7DCFEF860FB681846C8
:103450001037BD4680BD80B584B000AF786039605C
:1034600002233A682B217868FFF7CBFEF860FB68EF
:1034700018461037BD4680BD80B584B000AF786077
:10348000396001233A680F217868FFF7BAFEF860C7
:10349000FB6818461037BD4680BD80B584B000AFCC
:1034A00078600B46FB7007F1080201231A21786847
:1034B000FFF7A7FEF860FB68002B0FD1FB7803F045
:1034C0000103DAB23B7A62F300033B7207F10802B0
:1034D00001231A217868FFF7ACFEF860FB681846F4
:1034E0001037BD4680BD80B584B000AF78600B4614
:1034F000FB7007F10802012311217868FFF781FEB4
:10350000F860FB68002B0FD1FB7803F00103DAB2FF
:103510003B7A62F304133B7207F108020123112185
:103520007868FFF786FEF860FB6818461037BD46DE
:1035300080BD000080B584B000AF786039600023A2
:10354000FB607B68002B03D14FF0FF33FB604DE045
:103550003B681A687B681A603B685A687B685A60E7
:103560003B689A687B689A603B681A7B7B681A7331
:103570003B681A697B681A613B685A697B685A61C3
:103580003B689A697B689A617B681B4A1A627B6810
:103590001A4ADA617B687A685A627B681B68002B7A
:1035A00003D14FF0FF33FB6020E07B681B68984736
:1035B0000346002B03D04FF0FF33FB6016E07B681F
:1035C0009B68012B12D17B6893F82830002B0DD11A
:1035D0000123FB72FB7A1A462321786800F052FB24
:1035E0000346002B02D04FF0FF3300E0FB68184683
:1035F0001037BD4680BD00BF95440008F744000861
:1036000080B582B000AF78607B681C33012118461A
:1036100001F048F90346002B02D04FF0FF332CE0B5
:103620007B681C330021184601F077FA0346002B13
:1036300002D04FF0FF3320E07B68052283F82A2078
:103640007B681C330021184601F04CF80346002B20
:1036500002D04FF0FF3310E07B681C330021184686
:1036600001F0C2F80346002B02D04FF0FF3304E014
:103670007B68012283F82820002318460837BD46BE
:1036800080BD80B582B000AF7860786800F07CF8CB
:103690000346002B02D04FF0FF3308E07B68002286
:1036A00083F82A207B68002283F82820002318460C
:1036B0000837BD4680BD80B582B000AF7860396004
:1036C0007B681C333968184601F0DFF90346002B8C
:1036D00002D04FF0FF3300E0002318460837BD4604
:1036E00080BD000080B483B000AF786039603B6873
:1036F00001221A703B6800225A703B6800229A70BF
:103700003B680022DA703B6800225A603B68102256
:103710009A603B680022DA603B684FF000021A6151
:103720003B68064A5A613B684FF000029A610023E9
:1037300018460C37BD465DF8047B70470000C8434F
:1037400080B582B000AF78607B6893F82930012B98
:1037500001D1002314E07B6803F11C027B6893F81D
:103760002A301946104600F0BDFF0346002B02D058
:103770004FF0FF3304E07B68012283F82920002307
:1037800018460837BD4680BD80B582B000AF78606E
:103790007B6893F82930002B01D100231FE07B6860
:1037A00003F11C027B682A331946104600F0C0FF63
:1037B0000346002B02D04FF0FF3310E07B681C3330
:1037C0000021184600F08EFF0346002B02D04FF078
:1037D000FF3304E07B68002283F829200023184689
:1037E0000837BD4680BD80B584B000AF78603960D1
:1037F0000023FB607B681C3307F10B02114618465F
:1038000000F03CFF0346002B02D04FF0FF332EE0C8
:10381000FB7A012B0DD0022B15D0002B1DD139685E
:10382000786800F0A9FC0346002B1AD04FF0FF3354
:103830001DE03968786800F0E5FC0346002B12D0E3
:103840004FF0FF3313E03968786800F021FD03463C
:10385000002B0AD04FF0FF3309E04FF0FF33FB603D
:1038600004E000BF02E000BF00E000BFFB681846B4
:103870001037BD4680BD000080B584B000AF7860D1
:1038800039600023FB607B681C3307F10B02114693
:10389000184600F0F3FE0346002B02D04FF0FF3332
:1038A0009FE07B681C3307F10A021146184600F0BE
:1038B0003FFF0346002B02D04FF0FF3391E0FB7A2D
:1038C000022B48D1BB7A092B40D801A252F823F031
:1038D000F9380008033900080D39000815390008C7
:1038E0001D390008253900082D3900083539000830
:1038F0003D390008453900083B684FF000021A6066
:103900006EE03B684FF07E521A6069E03B68374AD0
:103910001A6065E03B68364A1A6061E03B68354AE8
:103920001A605DE03B68344A1A6059E03B68334AEC
:103930001A6055E03B68324A1A6051E03B68314AF0
:103940001A604DE03B68304A1A6049E04FF0FF339F
:10395000FB6000BF44E0BB7A092B3DD801A252F8BE
:1039600023F000BF8D39000897390008A1390008FD
:10397000A9390008B1390008B9390008C13900086F
:10398000C9390008D9390008D13900083B684FF01F
:1039900000021A6024E03B684FF07E521A601FE07C
:1039A0003B68124A1A601BE03B68114A1A6017E034
:1039B0003B68104A1A6013E03B680F4A1A600FE038
:1039C0003B680E4A1A600BE03B680D4A1A6007E03C
:1039D0003B680E4A1A6003E04FF0FF33FB6000BF04
:1039E000FB6818461037BD4680BD00BF000020416F
:1039F0000000C841000048420000C842000048439F
:103A00000000C8430080CA440000A8450000A84444
:103A100080B582B000AF786087ED000A7B6893F8CC
:103A20002930012B06D197ED000A786800F076FC6A
:103A3000034605E097ED000A786800F0D1FC0346E4
:103A400018460837BD4680BD80B584B000AF7860A9
:103A500039600023FB607B681C3307F10B021146C1
:103A6000184600F0E7FE0346002B02D04FF0FF336C
:103A700023E0FB7A032B1BD801A252F823F000BFEE
:103A8000913A0008993A0008A13A0008A93A0008BA
:103A90003B6802221A600FE03B6804221A600BE0C8
:103AA0003B6808221A6007E03B6810221A6003E0B6
:103AB0004FF0FF33FB6000BFFB6818461037BD4670
:103AC00080BD00BF80B584B000AF786039603B68CE
:103AD000022B0BDD3B68042B06DD3B68082B01DC69
:103AE000022304E0032302E0012300E00023FB7330
:103AF0007B681C33FA7B1146184600F075FE0346BE
:103B0000002B02D04FF0FF3300E00023184610379F
:103B1000BD4680BD80B588B000AF786039600123B4
:103B2000FB830023BB617B681C3307F10F02114646
:103B3000184600F0A3FD0346002B02D04FF0FF33E0
:103B400047E0FB7B012B06D0022B07D0002B09D1CD
:103B50001023FB830AE04023FB8307E04FF48073CC
:103B6000FB8303E04FF0FF33BB6100BFBB69B3F1E0
:103B7000FF3F01D1BB692CE07B681C3307F11002C9
:103B80001146184600F0B4FE0346002B02D04FF059
:103B9000FF331EE0B7F910301A46B7F91E3092FB1A
:103BA000F3F31AB23B681A80B7F912301A46B7F924
:103BB0001E3092FBF3F31AB23B685A80B7F9143007
:103BC0001A46B7F91E3092FBF3F31AB23B689A809B
:103BD000BB6918462037BD4680BD80B586B000AFB2
:103BE000786039604FF00003FB6007F1100319465D
:103BF0007868FFF78FFF0346002B02D04FF0FF33AA
:103C00003CE007F10C0319467868FFF7ECFD03462A
:103C1000002B02D04FF0FF3330E0B7F9103007EE41
:103C2000903AB8EEE77AD7ED037A67EE277AFDEEA1
:103C3000E77A17EE902A3B681A60B7F9123007EE60
:103C4000903AB8EEE77AD7ED037A67EE277AFDEE81
:103C5000E77A17EE902A3B685A60B7F9143007EEFE
:103C6000903AB8EEE77AD7ED037A67EE277AFDEE61
:103C7000E77A17EE902A3B689A60002318461837B7
:103C8000BD4680BD80B582B000AF78600B46FB704A
:103C90001346BB707B6803F11C00BA1CF978012342
:103CA00000F0D4FC0346002B02D04FF0FF3300E0BD
:103CB000002318460837BD4680BD000080B584B09B
:103CC00000AF786039600023FB607B68002B03D174
:103CD0004FF0FF33FB604BE03B681A687B681A606B
:103CE0003B685A687B685A603B689A687B689A6050
:103CF0003B681A7B7B681A733B681A697B681A6198
:103D00003B685A697B685A613B689A697B689A612B
:103D10007B681A4A1A627B68194ADA617B687A689A
:103D20005A627B681B68002B03D14FF0FF33FB60A6
:103D30001EE07B681B6898470346002B03D04FF0BA
:103D4000FF33FB6014E07B689B68002B10D07B681E
:103D500093F82830002B0BD17B681C3301211846C7
:103D600000F001FF0346002B02D04FF0FF3300E0CC
:103D7000FB6818461037BD4680BD00BF5945000896
:103D8000BB45000880B582B000AF78607B681C330B
:103D90000121184600F042FE0346002B02D04FF0EE
:103DA000FF3328E07B681C330221184600F0B1FD88
:103DB0000346002B02D04FF0FF331CE07B681C331E
:103DC0000321184600F0CBFD0346002B02D04FF034
:103DD000FF3310E07B681C330021184600F077FEAB
:103DE0000346002B02D04FF0FF3304E07B68012232
:103DF00083F82820002318460837BD4680BD80B5CB
:103E000082B000AF7860786800F074F80346002B49
:103E100002D04FF0FF3304E07B68002283F82820B3
:103E2000002318460837BD4680BD80B582B000AF7C
:103E3000786039607B681C333968184600F036FEBC
:103E40000346002B02D04FF0FF3300E0002318465A
:103E50000837BD4680BD000080B483B000AF7860F5
:103E600039603B6800221A703B6800225A703B6838
:103E700001229A703B680022DA703B6800225A6087
:103E80003B6800229A603B683222DA603B684FF060
:103E900000021A613B684FF000025A613B68044A15
:103EA0009A61002318460C37BD465DF8047B7047C5
:103EB0000000C84280B582B000AF78607B6893F89C
:103EC0002930012B01D1002310E07B681C33002135
:103ED000184600F01EFD0346002B02D04FF0FF33C2
:103EE00004E07B68012283F8292000231846083764
:103EF000BD4680BD80B582B000AF78607B6893F826
:103F00002930002B01D1002310E07B681C330221F3
:103F1000184600F0FEFC0346002B02D04FF0FF33A2
:103F200004E07B68002283F8292000231846083724
:103F3000BD4680BD80B483B000AF786039603B6817
:103F40004FF07F521A60002318460C37BD465DF8CB
:103F5000047B704780B584B000AF7860396000237F
:103F6000FB607B681C3307F10B021146184600F01A
:103F70001DFD0346002B02D04FF0FF3323E0FB7AF8
:103F8000032B1BD801A252F823F000BF9D3F00086D
:103F9000A53F0008AD3F0008B53F00083B680C4A4C
:103FA0001A600FE03B680B4A1A600BE03B680A4A54
:103FB0001A6007E03B68094A1A6003E04FF0FF33DC
:103FC000FB6000BFFB6818461037BD4680BD00BFD0
:103FD000000020410000A041000048420000C8420B
:103FE00080B584B000AF786087ED000AD7ED007A25
:103FF000B2EE047AF4EEC77AF1EE10FA01D800239B
:1040000016E0D7ED007AB3EE047AF4EEC77AF1EE5B
:1040100010FA01D801230BE0D7ED007A9FED0E7A5C
:10402000F4EEC77AF1EE10FA01D8022300E0032380
:10403000FB737B681C33FA7B1146184600F08FFC3B
:104040000346002B02D04FF0FF3300E00023184658
:104050001037BD4680BD00BF0000484280B483B029
:1040600000AF786039603B6832221A60002318463E
:104070000C37BD465DF8047B704780B483B000AF59
:1040800078603960002318460C37BD465DF8047B24
:10409000704780B584B000AF786039607B681C33AE
:1040A00007F108021146184600F0DEFC0346002B1B
:1040B00002D04FF0FF330CE0B7F908203B681A80BC
:1040C000B7F90A203B685A80B7F90C203B689A8000
:1040D000002318461037BD4680BD80B586B000AFBE
:1040E000786039607B681C3307F11002114618466E
:1040F00000F0BAFC0346002B02D04FF0FF3336E04D
:1041000007F10C0319467868FFF714FFB7F9103070
:1041100007EE903AB8EEE77AD7ED037A67EE277AA2
:10412000FDEEE77A17EE902A3B681A60B7F9123075
:1041300007EE903AB8EEE77AD7ED037A67EE277A82
:10414000FDEEE77A17EE902A3B685A60B7F9143013
:1041500007EE903AB8EEE77AD7ED037A67EE277A62
:10416000FDEEE77A17EE902A3B689A600023184626
:104170001837BD4680BD000080B584B000AF7860C0
:1041800039600023FB607B681C3307F10B0211468A
:10419000184600F04FFB0346002B02D04FF0FF33D0
:1041A00023E0FB7A032B1BD801A252F823F000BFB7
:1041B000C1410008C9410008D1410008D9410008A7
:1041C0003B680C4A1A600FE03B680B4A1A600BE030
:1041D0003B680A4A1A6007E03B68094A1A6003E034
:1041E0004FF0FF33FB6000BFFB6818461037BD4639
:1041F00080BD00BF48E17A3F9A99F93F9A9979408A
:104200001F853B4180B584B000AF786039600023E2
:10421000FB607B681C3307F10B021146184600F067
:1042200009FB0346002B02D04FF0FF3323E0FB7A5B
:10423000032B1BD801A252F823F000BF4D42000807
:10424000554200085D420008654200083B680C4A80
:104250001A600FE03B680B4A1A600BE03B680A4AA1
:104260001A6007E03B68094A1A6003E04FF0FF3329
:10427000FB6000BFFB6818461037BD4680BD00BF1D
:104280009A997940713DFA407B147A419A993B4260
:1042900080B584B000AF786039600023FB607B6834
:1042A0001C3307F10B021146184600F0C3FA03460F
:1042B000002B02D04FF0FF3323E0FB7A032B1BD8F7
:1042C00001A252F823F000BFD9420008E1420008E1
:1042D000E9420008F14200083B680C4A1A600FE00E
:1042E0003B680B4A1A600BE03B680A4A1A6007E019
:1042F0003B68094A1A6003E04FF0FF33FB6000BFE0
:10430000FB6818461037BD4680BD00BF7B147A415C
:104310007B14FA417B147A427B943B4380B584B092
:1043200000AF786087ED000AD7ED007AB7EE007A2B
:10433000F4EEC77AF1EE10FA01D8012337E0D7ED99
:10434000007AB2EE047AF4EEC77AF1EE10FA01D8F0
:1043500002232CE0D7ED007AB3EE097AF4EEC77AA7
:10436000F1EE10FA01D8032321E0D7ED007A9FED9A
:10437000197AF4EEC77AF1EE10FA01D8042316E0A8
:10438000D7ED007A9FED147AF4EEC77AF1EE10FAC9
:1043900001D805230BE0D7ED007A9FED107AF4EEFB
:1043A000C77AF1EE10FA01D8062300E00723FB7369
:1043B0007B681C33FA7B1146184600F093F90346DC
:1043C000002B02D04FF0FF3300E0002318461037D7
:1043D000BD4680BD000048420000C842000048437E
:1043E00080B483B000AF786087ED000AD7ED007A23
:1043F000B7EE007AF4EEC77AF1EE10FA01D8012395
:1044000037E0D7ED007AB2EE047AF4EEC77AF1EE37
:1044100010FA01D802232CE0D7ED007AB3EE097A26
:10442000F4EEC77AF1EE10FA01D8032321E0D7EDBC
:10443000007A9FED157AF4EEC77AF1EE10FA01D802
:10444000042316E0D7ED007A9FED107AF4EEC77AD8
:10445000F1EE10FA01D805230BE0D7ED007A9FEDBD
:104460000C7AF4EEC77AF1EE10FA01D8062300E0D8
:1044700007237A6882F82A30002318460C37BD4695
:104480005DF8047B704700BF000048420000C8424E
:104490000000484390B587B000AFF8607A601A46D4
:1044A0000B46FB7213463B81FB687B617B699B6813
:1044B000002B0ED17B695C697B691B7B98B2FB7A10
:1044C00063F07F03DBB299B23B897A68A047034669
:1044D0000DE07B695C697B691B7B98B2FB7A43F0DA
:1044E0004003DBB299B23B897A68A047034618467D
:1044F0001C37BD4690BD90B587B000AFF8607A60BC
:104500001A460B46FB7213463B81FB687B617B6955
:104510009B68002B0ED17B691C697B691B7B98B261
:10452000FB7A63F07F03DBB299B23B897A68A047DC
:1045300003460DE07B691C697B691B7B98B2FB7AA3
:1045400043F04003DBB299B23B897A68A047034647
:1045500018461C37BD4690BD90B587B000AFF860D7
:104560007A601A460B46FB7213463B81FB687B61FF
:104570007B699B68002B0ED17B695C697B691B7B27
:1045800098B2FB7A63F07F03DBB299B23B897A6819
:10459000A04703460DE07B695C697B691B7B98B291
:1045A000FB7A43F04003DBB299B23B897A68A047BB
:1045B000034618461C37BD4690BD90B587B000AF86
:1045C000F8607A601A460B46FB7213463B81FB6823
:1045D0007B617B699B68002B0ED17B691C697B69C1
:1045E0001B7B98B2FB7A63F07F03DBB299B23B8905
:1045F0007A68A04703460DE07B691C697B691B7BD9
:1046000098B2FB7A43F04003DBB299B23B897A68F7
:10461000A047034618461C37BD4690BD90B587B0ED
:1046200000AFF8607A601A460B46FB7213463B8176
:10463000FB685C68FB6898683B89F97A7A68A047F0
:1046400078617B6918461C37BD4690BD90B587B030
:1046500000AFF8607A601A460B46FB7213463B8146
:10466000FB681C68FB6898683B89F97A7A68A04700
:1046700078617B6918461C37BD4690BD80B586B011
:1046800000AF7860396007F10C02012320217868BF
:10469000FFF7C4FF78617B69002B07D107F1100297
:1046A000012323217868FFF7B9FF78613B7B03F092
:1046B0000803DBB2002B03D03B6802221A700CE027
:1046C0003B7C03F00803DBB2002B03D03B680022E5
:1046D0001A7002E03B6801221A707B69184618378D
:1046E000BD4680BD80B584B000AF78600B46FB70DE
:1046F00007F10802012320217868FFF78FFFF86097
:10470000FB68002B0FD1FB7803F00F03DAB23B7A82
:1047100062F307133B7207F1080201232021786836
:10472000FFF794FFF860FB6818461037BD4680BD60
:1047300080B584B000AF7860396007F108020123CA
:1047400020217868FFF76AFFF8603B7AC3F3031310
:10475000DBB2092B3ED801A252F823F085470008AE
:104760008D470008954700089D470008A5470008A9
:10477000AD470008B5470008BD470008C547000819
:10478000CD4700083B6800221A7027E03B680122F1
:104790001A7023E03B6802221A701FE03B68032274
:1047A0001A701BE03B6804221A7017E03B68052270
:1047B0001A7013E03B6806221A700FE03B6807226C
:1047C0001A700BE03B6808221A7007E03B68092268
:1047D0001A7003E03B6800221A7000BFFB6818469D
:1047E0001037BD4680BD00BF80B584B000AF786093
:1047F0000B46FB7007F10802012323217868FFF7BD
:104800000DFFF860FB68002B0FD1FB7803F003036A
:10481000DAB23B7A62F305133B7207F10802012317
:1048200023217868FFF712FFF860FB6818461037FD
:10483000BD4680BD80B584B000AF7860396007F1B7
:104840000802012323217868FFF7E8FEF8603B7A2D
:10485000C3F30113DBB2032B1AD801A252F823F0E1
:104860007148000879480008814800088948000814
:104870003B6800221A700FE03B6801221A700BE0BF
:104880003B6802221A7007E03B6803221A7003E0BB
:104890003B6800221A7000BFFB6818461037BD46FF
:1048A00080BD00BF80B584B000AF78600B46FB7060
:1048B00007F10802012323217868FFF7AFFEF860B3
:1048C000FB68002B0FD1FB7803F00103DAB23B7ACF
:1048D00062F3C7133B7207F10802012323217868B2
:1048E000FFF7B4FEF860FB6818461037BD4680BD80
:1048F00080B584B000AF7860396006233A6828211B
:104900007868FFF78BFEF860FB6818461037BD46E5
:1049100080BD80B584B000AF78600B46FB7007F1B6
:104920000802012360217868FFF778FEF860FB68D1
:10493000002B0FD1FB7803F00303DAB23B7A62F36A
:1049400001033B7207F10802012360217868FFF739
:104950007DFEF860FB6818461037BD4680BD80B507
:1049600084B000AF78600B46FB7007F108020123AA
:1049700060217868FFF752FEF860FB68002B0FD1CA
:10498000FB7803F00303DAB23B7A62F383033B72F2
:1049900007F10802012360217868FFF757FEF860ED
:1049A000FB6818461037BD4680BD000080B584B056
:1049B00000AF7860396007F1080201236021786850
:1049C000FFF72CFEF8603B7AC3F38103DBB2032BC5
:1049D0001AD801A252F823F0E9490008F149000869
:1049E000F9490008014A00083B6800221A700FE0EC
:1049F0003B6801221A700BE03B6802221A7007E044
:104A00003B6803221A7003E03B6800221A7000BF63
:104A1000FB6818461037BD4680BD00BF80B584B026
:104A200000AF78600B46FB7007F10802012362219A
:104A30007868FFF7F3FDF860FB68002B0FD1FB7877
:104A400003F00103DAB23B7A62F304133B7207F11D
:104A50000802012362217868FFF7F8FDF860FB681F
:104A600018461037BD4680BD80B584B000AF786071
:104A7000396006233A6868217868FFF7CFFDF8604F
:104A8000FB6818461037BD4680BD80B584B000AFC6
:104A90007860396001233A680F217868FFF7BEFD1E
:104AA000F860FB6818461037BD4680BD80B584B0FD
:104AB00000AF7860396001233A684F217868FFF7CA
:104AC000ADFDF860FB6818461037BD4680BD80B567
:104AD00084B000AF78600B46FB7007F10802012339
:104AE00062217868FFF79AFDF860FB68002B0FD110
:104AF000FB7803F00103DAB23B7A62F341033B72C5
:104B000007F10802012362217868FFF79FFDF86032
:104B1000FB6818461037BD4680BD80B584B000AF35
:104B200078600B46FB7007F1080201232E2178689C
:104B3000FFF774FDF860FB68002B0FD1FB7803F0E2
:104B40000303DAB23B7A62F387133B7207F1080280
:104B500001232E217868FFF779FDF860FB6818467D
:104B60001037BD4680BD80B584B000AF78600B467D
:104B7000FB7007F10802012362217868FFF74EFD00
:104B8000F860FB68002B0FD1FB7803F00103DAB269
:104B90003B7A62F345133B7207F10802012362215D
:104BA0007868FFF753FDF860FB6818461037BD467C
:104BB00080BD000080B584B000AF7860396000230C
:104BC000FB607B68002B03D14FF0FF33FB604DE0AF
:104BD0003B681A687B681A603B685A687B685A6051
:104BE0003B689A687B689A603B681A7B7B681A739B
:104BF0003B681A697B681A613B685A697B685A612D
:104C00003B689A697B689A617B681B4A1A627B6879
:104C10001A4ADA617B687A685A627B681B68002BE3
:104C200003D14FF0FF33FB6020E07B681B6898479F
:104C30000346002B03D04FF0FF33FB6016E07B6888
:104C40009B68022B12D17B6893F82830002B0DD182
:104C50000C23FB72FB7A1A461221786800F02DFDB6
:104C60000346002B02D04FF0FF33FB60FB68184671
:104C70001037BD4680BD00BF295B00085F5B0008A0
:104C800080B582B000AF78607B681C330121184684
:104C900001F0E5F90346002B02D04FF0FF3354E05A
:104CA0007B681C330121184601F080F90346002B74
:104CB00002D04FF0FF3348E07B681C3300211846D8
:104CC00001F0F3F90346002B02D04FF0FF333CE034
:104CD0007B68042283F82B207B681C330021184654
:104CE00000F0E6FF0346002B02D04FF0FF332CE02C
:104CF0007B681C330021184600F07CFF0346002B24
:104D000002D04FF0FF3320E07B68042283F82C2090
:104D10007B681C330021184601F0C0F80346002BC5
:104D200002D04FF0FF3310E07B681C330621184699
:104D300001F04CF80346002B02D04FF0FF3304E0A3
:104D40007B68012283F82820002318460837BD46D7
:104D500080BD80B582B000AF7860786800F088F8D8
:104D60000346002B02D04FF0FF3315E0786800F0C7
:104D70009AFA0346002B02D04FF0FF330CE07B6819
:104D8000002283F82B207B68002283F82C207B688C
:104D9000002283F82820002318460837BD4680BD2E
:104DA00080B582B000AF786039607B681C333968A9
:104DB000184601F043F90346002B02D04FF0FF33B1
:104DC00000E0002318460837BD4680BD80B483B09C
:104DD00000AF786039603B6801221A703B6801229D
:104DE0005A703B6800229A703B680022DA703B6878
:104DF0004FF4FA625A603B6810229A603B680022C6
:104E0000DA603B68074A1A613B68064A5A613B68A8
:104E10004FF000029A61002318460C37BD465DF83A
:104E2000047B70470020D04580B582B000AF786029
:104E30007B6893F82930012B01D1002314E07B68B3
:104E400003F11C027B6893F82B301946104600F0E2
:104E50002FFF0346002B02D04FF0FF3304E07B68A6
:104E6000012283F82920002318460837BD4680BD5B
:104E700080B582B000AF78607B6893F82930002B52
:104E800001D100231FE07B6803F11C027B682B33F8
:104E90001946104600F032FF0346002B02D04FF0B7
:104EA000FF3310E07B681C330021184600F000FF40
:104EB0000346002B02D04FF0FF3304E07B68002252
:104EC00083F82920002318460837BD4680BD00001E
:104ED00080B584B000AF786039600023FB607B68E8
:104EE0001C3307F10B021146184600F0A9FE0346D9
:104EF000002B02D04FF0FF3323E0FB7A032B1BD8AB
:104F000001A252F823F000BF194F0008314F0008EA
:104F1000214F0008294F00083B680C4A1A600FE037
:104F20003B680B4A1A600BE03B680A4A1A6007E0CC
:104F30003B68094A1A6003E04FF0FF33FB6000BF93
:104F4000FB6818461037BD4680BD00BF23DB793DA6
:104F500023DBF93D23DB793E23DBF93E80B584B0CA
:104F600000AF786039600023FB607B681C3307F179
:104F70000B021146184600F0C1FE0346002B02D07A
:104F80004FF0FF3354E0FB7A0B2B4CD801A252F8C0
:104F900023F000BFC54F0008D74F0008DF4F0008BF
:104FA000E74F0008EF4F0008F74F0008FF4F0008D9
:104FB000075000080F500008175000081F50000845
:104FC000CF4F00083B684FF000021A602FE03B68AB
:104FD000194A1A602BE03B68184A1A6027E03B68C0
:104FE000174A1A6023E03B68164A1A601FE03B68C4
:104FF000154A1A601BE03B68144A1A6017E03B68C8
:10500000134A1A6013E03B68124A1A600FE03B68CB
:10501000114A1A600BE03B68104A1A6007E03B68CF
:105020000F4A1A6003E04FF0FF33FB6000BFFB68DC
:1050300018461037BD4680BDCDCCCC3F000048415E
:105040000000D041000050420000D0420000504318
:105050000000D043004050440080CF440020504521
:105060000020D04580B582B000AF786087ED000A9F
:105070007B6893F82930012B06D197ED000A7868F8
:1050800000F036FB034605E097ED000A786800F073
:10509000BBFB034618460837BD4680BD80B584B0CB
:1050A00000AF786039600023FB607B681C3307F138
:1050B0000B021146184600F0C3FD0346002B02D038
:1050C0004FF0FF3323E0FB7A032B1BD801A252F8E9
:1050D00023F000BFE5500008FD500008ED50000827
:1050E000F55000083B6802221A600FE03B6804227A
:1050F0001A600BE03B6808221A6007E03B68102248
:105100001A6003E04FF0FF33FB6000BFFB681846F6
:105110001037BD4680BD00BF80B584B000AF786059
:1051200039603B68022B0BDD3B68042B06DD3B68D6
:10513000082B01DC032304E0012302E0022300E04A
:105140000023FB737B681C33FA7B1146184600F082
:1051500051FD0346002B02D04FF0FF3300E0002347
:1051600018461037BD4680BD80B584B000AF78606A
:1051700039607B681C3307F108021146184600F0BD
:105180004CFF0346002B02D04FF0FF330CE0B7F981
:1051900008203B681A80B7F90A203B685A80B7F9A3
:1051A0000C203B689A80002318461037BD4680BD0E
:1051B00080B586B000AF786039604FF00003FB60C7
:1051C0007B681C3307F110021146184600F025FFDA
:1051D0000346002B02D04FF0FF333CE007F10C03F5
:1051E00019467868FFF774FE0346002B02D04FF093
:1051F000FF3330E0B7F9103007EE903AB8EEE77AB7
:10520000D7ED037A67EE277AFDEEE77A17EE902A5C
:105210003B681A60B7F9123007EE903AB8EEE77AB9
:10522000D7ED037A67EE277AFDEEE77A17EE902A3C
:105230003B685A60B7F9143007EE903AB8EEE77A57
:10524000D7ED037A67EE277AFDEEE77A17EE902A1C
:105250003B689A60002318461837BD4680BD80B56C
:1052600082B000AF78607B6893F82A30012B01D1BF
:10527000002314E07B6803F11C027B6893F82C3058
:105280001946104600F00AFE0346002B02D04FF0EC
:10529000FF3304E07B68012283F82A2000231846AC
:1052A0000837BD4680BD80B582B000AF78607B68AE
:1052B00093F82A30002B01D100231FE07B6803F113
:1052C0001C027B682C331946104600F00DFE034685
:1052D000002B02D04FF0FF3310E07B681C3300211D
:1052E000184600F0DBFD0346002B02D04FF0FF33E1
:1052F00004E07B68002283F82A2000231846083740
:10530000BD4680BD80B584B000AF786039600023B1
:10531000FB607B681C3307F10B021146184600F056
:105320007BFD0346002B02D04FF0FF332DE0FB7ACC
:10533000062B25D801A252F823F000BF61530008C4
:10534000595300086953000881530008715300083D
:1053500081530008795300083B680E4A1A6013E035
:105360003B680D4A1A600FE03B680C4A1A600BE07C
:105370003B680B4A1A6007E03B680A4A1A6003E080
:105380004FF0FF33FB6000BFFB6818461037BD4687
:1053900080BD00BF00008C4000000C4100008C412B
:1053A00000000C4200008C4280B584B000AF7860F1
:1053B00039600023FB607B681C3307F10B02114648
:1053C000184600F091FD0346002B02D04FF0FF334A
:1053D0004EE0FB7A0A2B46D801A252F823F000BF18
:1053E0000D540008175400081F54000827540008E3
:1053F0002F540008375400083F5400084754000851
:105400004F540008575400085F5400083B684FF0A1
:1054100000021A602BE03B68174A1A6027E03B68DD
:10542000164A1A6023E03B68154A1A601FE03B6881
:10543000144A1A601BE03B68134A1A6017E03B6885
:10544000124A1A6013E03B68114A1A600FE03B6889
:10545000104A1A600BE03B680F4A1A6007E03B688D
:105460000E4A1A6003E04FF0FF33FB6000BFFB6899
:1054700018461037BD4680BD000048410000D041AD
:10548000000050420000D042000050430000D043D2
:10549000004050440080CF44002050450020D045BB
:1054A00080B582B000AF786087ED000A7B6893F822
:1054B0002A30012B06D197ED000A786800F026FA11
:1054C000034605E097ED000A786800F0ABFA034662
:1054D00018460837BD4680BD80B584B000AF7860FF
:1054E00039600023FB607B681C3307F10B02114617
:1054F000184600F091FC0346002B02D04FF0FF331A
:1055000030E0FB7A062B28D801A252F823F000BF26
:10551000355500082D5500083D5500085B5500081D
:10552000475500085B550008515500083B687D222F
:105530001A6016E03B68FA221A6012E03B684FF4EA
:10554000FA721A600DE03B684FF47A721A6008E054
:105550003B684FF4FA621A6003E04FF0FF33FB60E0
:1055600000BFFB6818461037BD4680BD80B584B0CB
:1055700000AF786039603B687D2B12DD3B68FA2B09
:105580000DDD3B68B3F5FA7F07DD3B68B3F57A7F45
:1055900001DC042306E0062304E0022302E00023EA
:1055A00000E00123FB737B681C33FA7B114618462D
:1055B00000F00CFC0346002B02D04FF0FF3300E05C
:1055C000002318461037BD4680BD80B584B000AFBB
:1055D000786039607B681C3307F108021146184671
:1055E00000F00AFD0346002B02D04FF0FF330CE021
:1055F000B7F908203B681A80B7F90A203B685A803F
:10560000B7F90C203B689A80002318461037BD4636
:1056100080BD80B586B000AF786039607B681C3390
:1056200007F110021146184600F0E6FC0346002B75
:1056300002D04FF0FF333CE007F10C0319467868C5
:10564000FFF760FE0346002B02D04FF0FF3330E03F
:10565000B7F9103007EE903AB8EEE77AD7ED037A53
:1056600067EE277AFDEEE77A17EE902A3B681A601C
:10567000B7F9123007EE903AB8EEE77AD7ED037A31
:1056800067EE277AFDEEE77A17EE902A3B685A60BC
:10569000B7F9143007EE903AB8EEE77AD7ED037A0F
:1056A00067EE277AFDEEE77A17EE902A3B689A605C
:1056B000002318461837BD4680BD80B582B000AFC4
:1056C00078600B46FB701346BB707B6803F11C00CF
:1056D000BA1CF978012300F075FA0346002B02D0BA
:1056E0004FF0FF3300E0002318460837BD4680BD69
:1056F00080B584B000AF786087ED000AD7ED007AFE
:10570000B2EE097AF4EEC77AF1EE10FA01D801236D
:1057100058E0D7ED007AB3EE0A7AF4EEC77AF1EEEC
:1057200010FA01D802234DE0D7ED007A9FED2F7AD1
:10573000F4EEC77AF1EE10FA01D8032342E0D7ED78
:10574000007A9FED2B7AF4EEC77AF1EE10FA01D8C9
:10575000042337E0D7ED007A9FED267AF4EEC77A7E
:10576000F1EE10FA01D805232CE0D7ED007A9FED79
:10577000227AF4EEC77AF1EE10FA01D8062321E07E
:10578000D7ED007A9FED1D7AF4EEC77AF1EE10FAAC
:1057900001D8072316E0D7ED007A9FED197AF4EED1
:1057A000C77AF1EE10FA01D808230BE0D7ED007AA2
:1057B0009FED147AF4EEC77AF1EE10FA01D80923BE
:1057C00000E00A23FB737B681C33FA7B1146184602
:1057D00000F06EFA0346002B02D04FF0FF3300E0DA
:1057E000002318461037BD4680BD00BF0000504260
:1057F0000000D042000050430000D043004050441D
:105800000080CF440020504580B483B000AF786062
:1058100087ED000AD7ED007AB2EE097AF4EEC77A86
:10582000F1EE10FA01D8012358E0D7ED007AB3EE7B
:105830000A7AF4EEC77AF1EE10FA01D802234DE0AD
:10584000D7ED007A9FED2A7AF4EEC77AF1EE10FADE
:1058500001D8032342E0D7ED007A9FED267AF4EEDB
:10586000C77AF1EE10FA01D8042337E0D7ED007AB9
:105870009FED217AF4EEC77AF1EE10FA01D80523F4
:105880002CE0D7ED007A9FED1D7AF4EEC77AF1EEA9
:1058900010FA01D8062321E0D7ED007A9FED187A9F
:1058A000F4EEC77AF1EE10FA01D8072316E0D7ED2F
:1058B000007A9FED147AF4EEC77AF1EE10FA01D86F
:1058C00008230BE0D7ED007A9FED0F7AF4EEC77A4C
:1058D000F1EE10FA01D8092300E00A237A6882F871
:1058E0002B30002318460C37BD465DF8047B70470B
:1058F000000050420000D042000050430000D0435E
:10590000004050440080CF440020504580B584B012
:1059100000AF786087ED000AD7ED007AB2EE097A21
:10592000F4EEC77AF1EE10FA01D8012358E0D7ED72
:10593000007AB3EE0A7AF4EEC77AF1EE10FA01D8E3
:1059400002234DE0D7ED007A9FED2F7AF4EEC77A6F
:10595000F1EE10FA01D8032342E0D7ED007A9FED73
:105960002B7AF4EEC77AF1EE10FA01D8042337E06F
:10597000D7ED007A9FED267AF4EEC77AF1EE10FAB1
:1059800001D805232CE0D7ED007A9FED227AF4EEC2
:10599000C77AF1EE10FA01D8062321E0D7ED007A9C
:1059A0009FED1D7AF4EEC77AF1EE10FA01D80723C5
:1059B00016E0D7ED007A9FED197AF4EEC77AF1EE92
:1059C00010FA01D808230BE0D7ED007A9FED147A86
:1059D000F4EEC77AF1EE10FA01D8092300E00A23A9
:1059E000FB737B681C33FA7B1146184600F056FAAD
:1059F0000346002B02D04FF0FF3300E0002318468F
:105A00001037BD4680BD00BF000050420000D042AC
:105A1000000050430000D043004050440080CF4479
:105A20000020504580B483B000AF786087ED000A55
:105A3000D7ED007AB2EE097AF4EEC77AF1EE10FAF9
:105A400001D8012358E0D7ED007AB3EE0A7AF4EEDC
:105A5000C77AF1EE10FA01D802234DE0D7ED007AB3
:105A60009FED2A7AF4EEC77AF1EE10FA01D80323FB
:105A700042E0D7ED007A9FED267AF4EEC77AF1EE98
:105A800010FA01D8042337E0D7ED007A9FED217A90
:105A9000F4EEC77AF1EE10FA01D805232CE0D7ED29
:105AA000007A9FED1D7AF4EEC77AF1EE10FA01D874
:105AB000062321E0D7ED007A9FED187AF4EEC77A3D
:105AC000F1EE10FA01D8072316E0D7ED007A9FED2A
:105AD000147AF4EEC77AF1EE10FA01D808230BE03D
